{"abi":[{"type":"function","name":"stake","inputs":[{"name":"token","type":"address","internalType":"contract IERC20"},{"name":"amount","type":"uint256","internalType":"uint256"}],"outputs":[],"stateMutability":"nonpayable"},{"type":"function","name":"stakes","inputs":[{"name":"user","type":"address","internalType":"address"},{"name":"token","type":"address","internalType":"contract IERC20"}],"outputs":[{"name":"amount","type":"uint256","internalType":"uint256"},{"name":"timestamp","type":"uint256","internalType":"uint256"}],"stateMutability":"view"},{"type":"function","name":"unstake","inputs":[{"name":"token","type":"address","internalType":"contract IERC20"},{"name":"amount","type":"uint256","internalType":"uint256"}],"outputs":[],"stateMutability":"nonpayable"},{"type":"event","name":"Staked","inputs":[{"name":"user","type":"address","indexed":true,"internalType":"address"},{"name":"token","type":"address","indexed":true,"internalType":"contract IERC20"},{"name":"amount","type":"uint256","indexed":false,"internalType":"uint256"}],"anonymous":false},{"type":"event","name":"Unstaked","inputs":[{"name":"user","type":"address","indexed":true,"internalType":"address"},{"name":"token","type":"address","indexed":true,"internalType":"contract IERC20"},{"name":"amount","type":"uint256","indexed":false,"internalType":"uint256"}],"anonymous":false},{"type":"error","name":"AddressEmptyCode","inputs":[{"name":"target","type":"address","internalType":"address"}]},{"type":"error","name":"AddressInsufficientBalance","inputs":[{"name":"account","type":"address","internalType":"address"}]},{"type":"error","name":"FailedInnerCall","inputs":[]},{"type":"error","name":"SafeERC20FailedOperation","inputs":[{"name":"token","type":"address","internalType":"address"}]}],"bytecode":{"object":"0x6080604052348015600f57600080fd5b506105568061001f6000396000f3fe608060405234801561001057600080fd5b50600436106100415760003560e01c8063a4e47b6614610046578063adc9772e1461008e578063c2a672e0146100a3575b600080fd5b61007561005436600461042e565b60006020818152928152604080822090935290815220805460019091015482565b6040805192835260208301919091520160405180910390f35b6100a161009c366004610467565b6100b6565b005b6100a16100b1366004610467565b610148565b6100c2823330846101d0565b336000908152602081815260408083206001600160a01b038616845290915281208054909183918391906100f79084906104a9565b90915550504260018201556040518281526001600160a01b0384169033907f5dac0c1b1112564a045ba943c9d50270893e8e826c49be8e7073adc713ab7bd7906020015b60405180910390a3505050565b336000908152602081815260408083206001600160a01b0386168452909152812080549091839183919061017d9084906104bc565b909155505042600182015561019383338461023d565b6040518281526001600160a01b0384169033907fd8654fcc8cf5b36d30b3f5e4688fc78118e6d68de60b9994e09902268b57c3e39060200161013b565b6040516001600160a01b0384811660248301528381166044830152606482018390526102379186918216906323b872dd906084015b604051602081830303815290604052915060e01b6020820180516001600160e01b038381831617835250505050610273565b50505050565b6040516001600160a01b0383811660248301526044820183905261026e91859182169063a9059cbb90606401610205565b505050565b60006102886001600160a01b038416836102db565b905080516000141580156102ad5750808060200190518101906102ab91906104cf565b155b1561026e57604051635274afe760e01b81526001600160a01b03841660048201526024015b60405180910390fd5b60606102e9838360006102f2565b90505b92915050565b6060814710156103175760405163cd78605960e01b81523060048201526024016102d2565b600080856001600160a01b0316848660405161033391906104f1565b60006040518083038185875af1925050503d8060008114610370576040519150601f19603f3d011682016040523d82523d6000602084013e610375565b606091505b5091509150610385868383610391565b925050505b9392505050565b6060826103a6576103a1826103ed565b61038a565b81511580156103bd57506001600160a01b0384163b155b156103e657604051639996b31560e01b81526001600160a01b03851660048201526024016102d2565b508061038a565b8051156103fd5780518082602001fd5b604051630a12f52160e11b815260040160405180910390fd5b50565b6001600160a01b038116811461041657600080fd5b6000806040838503121561044157600080fd5b823561044c81610419565b9150602083013561045c81610419565b809150509250929050565b6000806040838503121561047a57600080fd5b823561048581610419565b946020939093013593505050565b634e487b7160e01b600052601160045260246000fd5b808201808211156102ec576102ec610493565b818103818111156102ec576102ec610493565b6000602082840312156104e157600080fd5b8151801515811461038a57600080fd5b6000825160005b8181101561051257602081860181015185830152016104f8565b50600092019182525091905056fea264697066735822122066f5c487f403d0babfaf997a1811e938987664951e8915374623e728474a72c664736f6c634300081a0033","linkReferences":{}},"methodIdentifiers":{"stake(address,uint256)":"adc9772e","stakes(address,address)":"a4e47b66","unstake(address,uint256)":"c2a672e0"},"id":73}