{"abi":[{"type":"constructor","inputs":[{"name":"_rewardToken","type":"address","internalType":"contract IERC20"},{"name":"_pointsToken","type":"address","internalType":"contract IERC20"}],"stateMutability":"nonpayable"},{"type":"function","name":"claimAirdrop","inputs":[{"name":"token","type":"address","internalType":"contract IERC20"},{"name":"epoch","type":"uint256","internalType":"uint256"}],"outputs":[],"stateMutability":"nonpayable"},{"type":"function","name":"currentEpoch","inputs":[],"outputs":[{"name":"","type":"uint256","internalType":"uint256"}],"stateMutability":"view"},{"type":"function","name":"lockFor","inputs":[{"name":"user","type":"address","internalType":"address"},{"name":"token","type":"address","internalType":"contract IERC20"},{"name":"amount","type":"uint256","internalType":"uint256"}],"outputs":[],"stateMutability":"nonpayable"},{"type":"function","name":"owner","inputs":[],"outputs":[{"name":"","type":"address","internalType":"address"}],"stateMutability":"view"},{"type":"function","name":"pointsToken","inputs":[],"outputs":[{"name":"","type":"address","internalType":"contract IERC20"}],"stateMutability":"view"},{"type":"function","name":"renounceOwnership","inputs":[],"outputs":[],"stateMutability":"nonpayable"},{"type":"function","name":"rewardToken","inputs":[],"outputs":[{"name":"","type":"address","internalType":"contract IERC20"}],"stateMutability":"view"},{"type":"function","name":"setAirdrop","inputs":[{"name":"token","type":"address","internalType":"contract IERC20"},{"name":"epoch","type":"uint256","internalType":"uint256"},{"name":"reward","type":"uint256","internalType":"uint256"}],"outputs":[],"stateMutability":"nonpayable"},{"type":"function","name":"setEpoch","inputs":[{"name":"epoch","type":"uint256","internalType":"uint256"}],"outputs":[],"stateMutability":"nonpayable"},{"type":"function","name":"transferOwnership","inputs":[{"name":"newOwner","type":"address","internalType":"address"}],"outputs":[],"stateMutability":"nonpayable"},{"type":"function","name":"vaults","inputs":[{"name":"token","type":"address","internalType":"contract IERC20"},{"name":"epoch","type":"uint256","internalType":"uint256"}],"outputs":[{"name":"totalPoints","type":"uint256","internalType":"uint256"},{"name":"totalReward","type":"uint256","internalType":"uint256"}],"stateMutability":"view"},{"type":"event","name":"Burned","inputs":[{"name":"user","type":"address","indexed":true,"internalType":"address"},{"name":"token","type":"address","indexed":true,"internalType":"contract IERC20"},{"name":"epoch","type":"uint256","indexed":true,"internalType":"uint256"},{"name":"amount","type":"uint256","indexed":false,"internalType":"uint256"}],"anonymous":false},{"type":"event","name":"Locked","inputs":[{"name":"user","type":"address","indexed":true,"internalType":"address"},{"name":"token","type":"address","indexed":true,"internalType":"contract IERC20"},{"name":"epoch","type":"uint256","indexed":true,"internalType":"uint256"},{"name":"amount","type":"uint256","indexed":false,"internalType":"uint256"}],"anonymous":false},{"type":"event","name":"OwnershipTransferred","inputs":[{"name":"previousOwner","type":"address","indexed":true,"internalType":"address"},{"name":"newOwner","type":"address","indexed":true,"internalType":"address"}],"anonymous":false},{"type":"error","name":"AddressEmptyCode","inputs":[{"name":"target","type":"address","internalType":"address"}]},{"type":"error","name":"AddressInsufficientBalance","inputs":[{"name":"account","type":"address","internalType":"address"}]},{"type":"error","name":"FailedInnerCall","inputs":[]},{"type":"error","name":"OwnableInvalidOwner","inputs":[{"name":"owner","type":"address","internalType":"address"}]},{"type":"error","name":"OwnableUnauthorizedAccount","inputs":[{"name":"account","type":"address","internalType":"address"}]},{"type":"error","name":"SafeERC20FailedOperation","inputs":[{"name":"token","type":"address","internalType":"address"}]}],"bytecode":{"object":"0x60c060405234801561001057600080fd5b50604051610b27380380610b2783398101604081905261002f916100e2565b338061005557604051631e4fbdf760e01b81526000600482015260240160405180910390fd5b61005e81610076565b506001600160a01b039182166080521660a052610115565b600080546001600160a01b038381166001600160a01b0319831681178455604051919092169283917f8be0079c531659141344cd1fd0a4f28419497f9722a3daafe3b4186f6b6457e09190a35050565b80516001600160a01b03811681146100dd57600080fd5b919050565b600080604083850312156100f557600080fd5b6100fe836100c6565b915061010c602084016100c6565b90509250929050565b60805160a0516109d961014e6000396000818160e3015281816102a801526104530152600081816101bc015261035701526109d96000f3fe608060405234801561001057600080fd5b50600436106100a95760003560e01c80637bbfc69e116100715780637bbfc69e146101395780638da5cb5b14610180578063bf94128514610191578063f2fde38b146101a4578063f7c618c1146101b7578063f9d78c77146101de57600080fd5b80630acbdb5f146100ae5780630ceb2cef146100c3578063715018a6146100d657806372e1011c146100de5780637667180814610122575b600080fd5b6100c16100bc366004610805565b6101f1565b005b6100c16100d1366004610831565b610384565b6100c1610391565b6101057f000000000000000000000000000000000000000000000000000000000000000081565b6040516001600160a01b0390911681526020015b60405180910390f35b61012b60015481565b604051908152602001610119565b61016b610147366004610805565b60026020908152600092835260408084209091529082529020805460019091015482565b60408051928352602083019190915201610119565b6000546001600160a01b0316610105565b6100c161019f36600461084a565b6103a5565b6100c16101b236600461087f565b610410565b6101057f000000000000000000000000000000000000000000000000000000000000000081565b6100c16101ec36600461089c565b61044e565b6001600160a01b0382166000908152600260208181526040808420858552825280842033855292830190915282205481546001830154929391926102369084906108f3565b610240919061090a565b905081836000016000828254610256919061092c565b9250508190555080836001016000828254610271919061092c565b90915550503360009081526002840160205260408082209190915551630852cd8d60e31b8152600481018390526001600160a01b037f000000000000000000000000000000000000000000000000000000000000000016906342966c6890602401600060405180830381600087803b1580156102ec57600080fd5b505af1158015610300573d6000803e3d6000fd5b5050505083856001600160a01b0316336001600160a01b03167f8cbfdd0f15f678ea4039ef0f30ce1494d591556082bee7c244bfd664efad36c78560405161034a91815260200190565b60405180910390a461037d7f00000000000000000000000000000000000000000000000000000000000000003383610532565b5050505050565b61038c610596565b600155565b610399610596565b6103a360006105c3565b565b6103ad610596565b81600154036103e75760405162461bcd60e51b81526020600482015260016024820152604560f81b60448201526064015b60405180910390fd5b6001600160a01b0390921660009081526002602090815260408083209383529290522060010155565b610418610596565b6001600160a01b03811661044257604051631e4fbdf760e01b8152600060048201526024016103de565b61044b816105c3565b50565b61047a7f0000000000000000000000000000000000000000000000000000000000000000333084610613565b6001600160a01b0380831660009081526002602081815260408084206001548552825280842094881684529184019052812080548492906104bc90849061093f565b90915550508054829082906000906104d590849061093f565b92505081905550600154836001600160a01b0316856001600160a01b03167f967ad762aa9070ada8db64577288e214771e89667066ae38e8750cb8a86c54298560405161052491815260200190565b60405180910390a450505050565b6040516001600160a01b0383811660248301526044820183905261059191859182169063a9059cbb906064015b604051602081830303815290604052915060e01b6020820180516001600160e01b038381831617835250505050610652565b505050565b6000546001600160a01b031633146103a35760405163118cdaa760e01b81523360048201526024016103de565b600080546001600160a01b038381166001600160a01b0319831681178455604051919092169283917f8be0079c531659141344cd1fd0a4f28419497f9722a3daafe3b4186f6b6457e09190a35050565b6040516001600160a01b03848116602483015283811660448301526064820183905261064c9186918216906323b872dd9060840161055f565b50505050565b60006106676001600160a01b038416836106b5565b9050805160001415801561068c57508080602001905181019061068a9190610952565b155b1561059157604051635274afe760e01b81526001600160a01b03841660048201526024016103de565b60606106c3838360006106cc565b90505b92915050565b6060814710156106f15760405163cd78605960e01b81523060048201526024016103de565b600080856001600160a01b0316848660405161070d9190610974565b60006040518083038185875af1925050503d806000811461074a576040519150601f19603f3d011682016040523d82523d6000602084013e61074f565b606091505b509150915061075f86838361076b565b925050505b9392505050565b6060826107805761077b826107c7565b610764565b815115801561079757506001600160a01b0384163b155b156107c057604051639996b31560e01b81526001600160a01b03851660048201526024016103de565b5080610764565b8051156107d75780518082602001fd5b604051630a12f52160e11b815260040160405180910390fd5b6001600160a01b038116811461044b57600080fd5b6000806040838503121561081857600080fd5b8235610823816107f0565b946020939093013593505050565b60006020828403121561084357600080fd5b5035919050565b60008060006060848603121561085f57600080fd5b833561086a816107f0565b95602085013595506040909401359392505050565b60006020828403121561089157600080fd5b8135610764816107f0565b6000806000606084860312156108b157600080fd5b83356108bc816107f0565b925060208401356108cc816107f0565b929592945050506040919091013590565b634e487b7160e01b600052601160045260246000fd5b80820281158282048414176106c6576106c66108dd565b60008261092757634e487b7160e01b600052601260045260246000fd5b500490565b818103818111156106c6576106c66108dd565b808201808211156106c6576106c66108dd565b60006020828403121561096457600080fd5b8151801515811461076457600080fd5b6000825160005b81811015610995576020818601810151858301520161097b565b50600092019182525091905056fea26469706673582212203d35fb82cf65ed400b4b4ff0537428380fc1c302bd064de93fecffc4ba48d08064736f6c634300081a0033","linkReferences":{}},"methodIdentifiers":{"claimAirdrop(address,uint256)":"0acbdb5f","currentEpoch()":"76671808","lockFor(address,address,uint256)":"f9d78c77","owner()":"8da5cb5b","pointsToken()":"72e1011c","renounceOwnership()":"715018a6","rewardToken()":"f7c618c1","setAirdrop(address,uint256,uint256)":"bf941285","setEpoch(uint256)":"0ceb2cef","transferOwnership(address)":"f2fde38b","vaults(address,uint256)":"7bbfc69e"},"id":76}