{"abi":[{"type":"constructor","inputs":[{"name":"_memeStaking","type":"address","internalType":"contract MemeStaking"},{"name":"_pointsLocker","type":"address","internalType":"contract PointsLocker"},{"name":"_oracle","type":"address","internalType":"contract IOracle"}],"stateMutability":"nonpayable"},{"type":"function","name":"cooldownPeriod","inputs":[],"outputs":[{"name":"","type":"uint256","internalType":"uint256"}],"stateMutability":"view"},{"type":"function","name":"lastClaimTime","inputs":[{"name":"user","type":"address","internalType":"address"},{"name":"token","type":"address","internalType":"contract IERC20"}],"outputs":[{"name":"","type":"uint256","internalType":"uint256"}],"stateMutability":"view"},{"type":"function","name":"lockPoints","inputs":[{"name":"token","type":"address","internalType":"contract IERC20"}],"outputs":[],"stateMutability":"nonpayable"},{"type":"function","name":"memeStaking","inputs":[],"outputs":[{"name":"","type":"address","internalType":"contract MemeStaking"}],"stateMutability":"view"},{"type":"function","name":"multiplier","inputs":[],"outputs":[{"name":"","type":"uint256","internalType":"uint256"}],"stateMutability":"view"},{"type":"function","name":"oracle","inputs":[],"outputs":[{"name":"","type":"address","internalType":"contract IOracle"}],"stateMutability":"view"},{"type":"function","name":"owner","inputs":[],"outputs":[{"name":"","type":"address","internalType":"address"}],"stateMutability":"view"},{"type":"function","name":"pointsLocker","inputs":[],"outputs":[{"name":"","type":"address","internalType":"contract PointsLocker"}],"stateMutability":"view"},{"type":"function","name":"pointsPerPeriod","inputs":[{"name":"user","type":"address","internalType":"address"},{"name":"token","type":"address","internalType":"contract IERC20"}],"outputs":[{"name":"","type":"uint256","internalType":"uint256"}],"stateMutability":"view"},{"type":"function","name":"pointsToken","inputs":[],"outputs":[{"name":"","type":"address","internalType":"contract PointsToken"}],"stateMutability":"view"},{"type":"function","name":"registerFee","inputs":[],"outputs":[{"name":"","type":"uint256","internalType":"uint256"}],"stateMutability":"view"},{"type":"function","name":"registerMeme","inputs":[{"name":"meme","type":"address","internalType":"contract IERC20"}],"outputs":[],"stateMutability":"nonpayable"},{"type":"function","name":"renounceOwnership","inputs":[],"outputs":[],"stateMutability":"nonpayable"},{"type":"function","name":"rewardToken","inputs":[],"outputs":[{"name":"","type":"address","internalType":"contract MemeStakeToken"}],"stateMutability":"view"},{"type":"function","name":"setCooldownPeriod","inputs":[{"name":"_cooldownPeriod","type":"uint256","internalType":"uint256"}],"outputs":[],"stateMutability":"nonpayable"},{"type":"function","name":"setFees","inputs":[{"name":"_registerFee","type":"uint256","internalType":"uint256"}],"outputs":[],"stateMutability":"nonpayable"},{"type":"function","name":"setMultiplier","inputs":[{"name":"_multiplier","type":"uint256","internalType":"uint256"}],"outputs":[],"stateMutability":"nonpayable"},{"type":"function","name":"setOracle","inputs":[{"name":"_oracle","type":"address","internalType":"contract IOracle"}],"outputs":[],"stateMutability":"nonpayable"},{"type":"function","name":"transferOwnership","inputs":[{"name":"newOwner","type":"address","internalType":"address"}],"outputs":[],"stateMutability":"nonpayable"},{"type":"function","name":"whenReady","inputs":[{"name":"user","type":"address","internalType":"address"},{"name":"token","type":"address","internalType":"contract IERC20"}],"outputs":[{"name":"","type":"uint256","internalType":"uint256"}],"stateMutability":"view"},{"type":"event","name":"OwnershipTransferred","inputs":[{"name":"previousOwner","type":"address","indexed":true,"internalType":"address"},{"name":"newOwner","type":"address","indexed":true,"internalType":"address"}],"anonymous":false},{"type":"event","name":"PointsLocked","inputs":[{"name":"user","type":"address","indexed":true,"internalType":"address"},{"name":"token","type":"address","indexed":true,"internalType":"contract IERC20"},{"name":"amount","type":"uint256","indexed":false,"internalType":"uint256"}],"anonymous":false},{"type":"event","name":"RegisterMeme","inputs":[{"name":"meme","type":"address","indexed":true,"internalType":"contract IERC20"},{"name":"fee","type":"uint256","indexed":false,"internalType":"uint256"}],"anonymous":false},{"type":"error","name":"AddressEmptyCode","inputs":[{"name":"target","type":"address","internalType":"address"}]},{"type":"error","name":"AddressInsufficientBalance","inputs":[{"name":"account","type":"address","internalType":"address"}]},{"type":"error","name":"FailedInnerCall","inputs":[]},{"type":"error","name":"OwnableInvalidOwner","inputs":[{"name":"owner","type":"address","internalType":"address"}]},{"type":"error","name":"OwnableUnauthorizedAccount","inputs":[{"name":"account","type":"address","internalType":"address"}]},{"type":"error","name":"SafeERC20FailedOperation","inputs":[{"name":"token","type":"address","internalType":"address"}]}],"bytecode":{"object":"0x610100604052603c600255600a600355662386f26fc1000060045534801561002657600080fd5b50604051610fcf380380610fcf83398101604081905261004591610267565b338061006b57604051631e4fbdf760e01b81526000600482015260240160405180910390fd5b610074816101ff565b50600180546001600160a01b0319166001600160a01b038381169190911790915583811660e052821660c08190526040805163f7c618c160e01b8152905163f7c618c1916004808201926020929091908290030181865afa1580156100dd573d6000803e3d6000fd5b505050506040513d601f19601f8201168201806040525081019061010191906102b4565b6001600160a01b03166080816001600160a01b031681525050816001600160a01b03166372e1011c6040518163ffffffff1660e01b8152600401602060405180830381865afa158015610158573d6000803e3d6000fd5b505050506040513d601f19601f8201168201806040525081019061017c91906102b4565b6001600160a01b0390811660a081905260405163095ea7b360e01b8152918416600483015260001960248301529063095ea7b3906044016020604051808303816000875af11580156101d2573d6000803e3d6000fd5b505050506040513d601f19601f820116820180604052508101906101f691906102d8565b505050506102fa565b600080546001600160a01b038381166001600160a01b0319831681178455604051919092169283917f8be0079c531659141344cd1fd0a4f28419497f9722a3daafe3b4186f6b6457e09190a35050565b6001600160a01b038116811461026457600080fd5b50565b60008060006060848603121561027c57600080fd5b83516102878161024f565b60208501519093506102988161024f565b60408501519092506102a98161024f565b809150509250925092565b6000602082840312156102c657600080fd5b81516102d18161024f565b9392505050565b6000602082840312156102ea57600080fd5b815180151581146102d157600080fd5b60805160a05160c05160e051610c796103566000396000818161017901528181610599015261071b0152600081816101b801526104cb015260008181610233015261043d0152600081816102f5015261031c0152610c796000f3fe608060405234801561001057600080fd5b506004361061012c5760003560e01c8063715018a6116100ad5780638d76228a116100715780638d76228a1461028e5780638da5cb5b146102a157806391920f30146102b2578063f2fde38b146102dd578063f7c618c1146102f057600080fd5b8063715018a61461022657806372e1011c1461022e5780637adbf973146102555780637dc0d1d01461026857806380ea3de11461027b57600080fd5b80633617404e116100f45780633617404e146101b35780633d18678e146101da5780634bfda807146101ed5780635a7e6b8714610200578063641579a61461021357600080fd5b806303f187ea1461013157806304646a491461014d5780630a5dc0d7146101565780631b3ed7221461016b5780633127d51f14610174575b600080fd5b61013a60045481565b6040519081526020015b60405180910390f35b61013a60025481565b610169610164366004610ae4565b610317565b005b61013a60035481565b61019b7f000000000000000000000000000000000000000000000000000000000000000081565b6040516001600160a01b039091168152602001610144565b61019b7f000000000000000000000000000000000000000000000000000000000000000081565b6101696101e8366004610b01565b61039e565b6101696101fb366004610ae4565b6103ab565b61013a61020e366004610b1a565b61056d565b610169610221366004610b01565b610697565b6101696106a4565b61019b7f000000000000000000000000000000000000000000000000000000000000000081565b610169610263366004610ae4565b6106b8565b60015461019b906001600160a01b031681565b610169610289366004610b01565b6106e2565b61013a61029c366004610b1a565b6106ef565b6000546001600160a01b031661019b565b61013a6102c0366004610b1a565b600560209081526000928352604080842090915290825290205481565b6101696102eb366004610ae4565b610815565b61019b7f000000000000000000000000000000000000000000000000000000000000000081565b6103567f00000000000000000000000000000000000000000000000000000000000000003361034e6000546001600160a01b031690565b600454610853565b806001600160a01b03167f22c367d716738411689f6483ff79bb7ca582fbce7fc798547a32f957b534274360045460405161039391815260200190565b60405180910390a250565b6103a66108b3565b600455565b426103b6338361056d565b11156103ed5760405162461bcd60e51b81526020600482015260016024820152601560fa1b60448201526064015b60405180910390fd5b3360008181526005602090815260408083206001600160a01b038616845290915281204290559061041e90836106ef565b6040516340c10f1960e01b8152306004820152602481018290529091507f00000000000000000000000000000000000000000000000000000000000000006001600160a01b0316906340c10f1990604401600060405180830381600087803b15801561048957600080fd5b505af115801561049d573d6000803e3d6000fd5b505060405163f9d78c7760e01b81523360048201526001600160a01b038581166024830152604482018590527f000000000000000000000000000000000000000000000000000000000000000016925063f9d78c779150606401600060405180830381600087803b15801561051157600080fd5b505af1158015610525573d6000803e3d6000fd5b50506040518381526001600160a01b03851692503391507f4994b6fbfdf505103588f6460ae5588d5cdbef64e13f5845fb6958334d59abe19060200160405180910390a35050565b6040516352723db360e11b81526001600160a01b038381166004830152828116602483015260009182917f0000000000000000000000000000000000000000000000000000000000000000169063a4e47b66906044016040805180830381865afa1580156105df573d6000803e3d6000fd5b505050506040513d601f19601f820116820180604052508101906106039190610b53565b91505080600003610618576000915050610691565b6001600160a01b0380851660009081526005602090815260408083209387168352929052205481111561065a576002546106529082610b8d565b915050610691565b6002546001600160a01b0380861660009081526005602090815260408083209388168352929052205461068d9190610b8d565b9150505b92915050565b61069f6108b3565b600355565b6106ac6108b3565b6106b660006108e0565b565b6106c06108b3565b600180546001600160a01b0319166001600160a01b0392909216919091179055565b6106ea6108b3565b600255565b6040516352723db360e11b81526001600160a01b038381166004830152828116602483015260009182917f0000000000000000000000000000000000000000000000000000000000000000169063a4e47b66906044016040805180830381865afa158015610761573d6000803e3d6000fd5b505050506040513d601f19601f820116820180604052508101906107859190610b53565b506001546040516341976e0960e01b81526001600160a01b038681166004830152929350670de0b6b3a764000092909116906341976e0990602401602060405180830381865afa1580156107dd573d6000803e3d6000fd5b505050506040513d601f19601f820116820180604052508101906108019190610ba0565b61080b9083610bb9565b61068d9190610bd0565b61081d6108b3565b6001600160a01b03811661084757604051631e4fbdf760e01b8152600060048201526024016103e4565b610850816108e0565b50565b604080516001600160a01b0385811660248301528416604482015260648082018490528251808303909101815260849091019091526020810180516001600160e01b03166323b872dd60e01b1790526108ad908590610930565b50505050565b6000546001600160a01b031633146106b65760405163118cdaa760e01b81523360048201526024016103e4565b600080546001600160a01b038381166001600160a01b0319831681178455604051919092169283917f8be0079c531659141344cd1fd0a4f28419497f9722a3daafe3b4186f6b6457e09190a35050565b60006109456001600160a01b03841683610998565b9050805160001415801561096a5750808060200190518101906109689190610bf2565b155b1561099357604051635274afe760e01b81526001600160a01b03841660048201526024016103e4565b505050565b60606109a6838360006109ad565b9392505050565b6060814710156109d25760405163cd78605960e01b81523060048201526024016103e4565b600080856001600160a01b031684866040516109ee9190610c14565b60006040518083038185875af1925050503d8060008114610a2b576040519150601f19603f3d011682016040523d82523d6000602084013e610a30565b606091505b5091509150610a40868383610a4a565b9695505050505050565b606082610a5f57610a5a82610aa6565b6109a6565b8151158015610a7657506001600160a01b0384163b155b15610a9f57604051639996b31560e01b81526001600160a01b03851660048201526024016103e4565b50806109a6565b805115610ab65780518082602001fd5b604051630a12f52160e11b815260040160405180910390fd5b6001600160a01b038116811461085057600080fd5b600060208284031215610af657600080fd5b81356109a681610acf565b600060208284031215610b1357600080fd5b5035919050565b60008060408385031215610b2d57600080fd5b8235610b3881610acf565b91506020830135610b4881610acf565b809150509250929050565b60008060408385031215610b6657600080fd5b505080516020909101519092909150565b634e487b7160e01b600052601160045260246000fd5b8082018082111561069157610691610b77565b600060208284031215610bb257600080fd5b5051919050565b808202811582820484141761069157610691610b77565b600082610bed57634e487b7160e01b600052601260045260246000fd5b500490565b600060208284031215610c0457600080fd5b815180151581146109a657600080fd5b6000825160005b81811015610c355760208186018101518583015201610c1b565b50600092019182525091905056fea2646970667358221220d0ad431812b006f8805302722039911ea888ef2250d25e8e85893dec44207c5b64736f6c634300081a0033","linkReferences":{}},"methodIdentifiers":{"cooldownPeriod()":"04646a49","lastClaimTime(address,address)":"91920f30","lockPoints(address)":"4bfda807","memeStaking()":"3127d51f","multiplier()":"1b3ed722","oracle()":"7dc0d1d0","owner()":"8da5cb5b","pointsLocker()":"3617404e","pointsPerPeriod(address,address)":"8d76228a","pointsToken()":"72e1011c","registerFee()":"03f187ea","registerMeme(address)":"0a5dc0d7","renounceOwnership()":"715018a6","rewardToken()":"f7c618c1","setCooldownPeriod(uint256)":"80ea3de1","setFees(uint256)":"3d18678e","setMultiplier(uint256)":"641579a6","setOracle(address)":"7adbf973","transferOwnership(address)":"f2fde38b","whenReady(address,address)":"5a7e6b87"},"id":42}